:03000000020003F8
:1000030075811BE4787FF6D8FD90014BE493700271
:10001300804EC31392D5C31392D1FFA3E493F8B0D8
:10002300D5402130D505E4A393F5A0E420D102A364
:100033009320D507F608DFF3A380D1F208B800F6C2
:1000430005A080F2E8030303541F2420F9E85407B2
:10005300F8E4D333B80002800333D8FD47F780D8E0
:0600630075A0FF02008DF4
:0C006900E4FCFD78FFD8FE0DBD0FF8226E
:0C007500E4FCFD78FFD8FE0DBDFFF82272
:0C008100120069850883850982E4F022E2
:0C008D007508FF7509C3750AFF750BC4E8
:10009900120081850A83850B827438F012008185EC
:1000A9000A83850B827406F0120081850A83850B09
:1000B900827401F0120081850A83850B82740CF029
:1000C900120081850A83850B827480F0751A00E518
:0600D9001AB40A005020D9
:1000DF001200811200698508838509827401F0E599
:1000EF001A240CF8850A83850B82E6F0051A80D94D
:1000FF00120081850A83850B8274C3F0751A00E59F
:06010F001AB40A005020A2
:100115001200811200698508838509827401F0E562
:100125001A2414F8850A83850B82E6F0051A80D90E
:10013500120081850A83850B827418F01200758080
:06014500EF80FE020099AC
:10014B00200C414E495255444800181444554D4219
:02015B004F0053
:01015D0000A1
:00000001FF
