:03000000020003F8
:1000030075810EE4787FF6D8FD90009DE49370022D
:10001300804EC31392D5C31392D1FFA3E493F8B0D8
:10002300D5402130D505E4A393F5A0E420D102A364
:100033009320D507F608DFF3A380D1F208B800F6C2
:1000430005A080F2E8030303541F2420F9E85407B2
:10005300F8E4D333B80002800333D8FD47F780D8E0
:0600630075A0FF0200750C
:03006900E4FCFDB7
:09006C0078FFD8FE0DBD0FF8224B
:09007500E4FAFB7508FF7509C8E7
:10007E00EB240AF8850883850982E6F00BEB700104
:0F008E000A120069EB64044A70E6E4FAFB80E1B1
:06009D00100A0A06050925
:0100A300005C
:00000001FF
